{
  "contractName": "Ownable",
  "abi": [
    {
      "inputs": [],
      "payable": false,
      "stateMutability": "nonpayable",
      "type": "constructor"
    },
    {
      "constant": true,
      "inputs": [],
      "name": "owner",
      "outputs": [
        {
          "internalType": "address",
          "name": "",
          "type": "address"
        }
      ],
      "payable": false,
      "stateMutability": "view",
      "type": "function"
    }
  ],
  "bytecode": "0x608060405234801561001057600080fd5b50336000806101000a81548173ffffffffffffffffffffffffffffffffffffffff021916908373ffffffffffffffffffffffffffffffffffffffff16021790555060cf8061005f6000396000f3fe6080604052348015600f57600080fd5b506004361060285760003560e01c80638da5cb5b14602d575b600080fd5b60336075565b604051808273ffffffffffffffffffffffffffffffffffffffff1673ffffffffffffffffffffffffffffffffffffffff16815260200191505060405180910390f35b6000809054906101000a900473ffffffffffffffffffffffffffffffffffffffff168156fea265627a7a7231582010dd67c7957321722fc47e0b3c7bf8b492249f2b62a7d5dd6c01975b3ed0e3c064736f6c634300050c0032",
  "source": "// SPDX-License-Identifier: MIT\r\npragma solidity 0.5.12;\r\n// MNP ChaoticCoder\r\n\r\n import \"./Safemath.sol\";\r\n\r\n\r\ncontract Ownable{\r\n    address public owner;\r\n\r\n    modifier onlyOwner(){\r\n        require(msg.sender == owner);\r\n        _; //Continue execution\r\n    }\r\n\r\n    constructor() public{\r\n        owner = msg.sender;\r\n    }\r\n}\r\n\r\ncontract ERC20 is Ownable  {\r\n    using SafeMath for uint256;\r\n    \r\n    mapping (address => uint256) private _balances; // track balances of accounts\r\n\r\n    uint256 private _totalSupply;\r\n\r\n    string private _name;\r\n    string private _symbol;\r\n    uint8 private _decimals;\r\n\r\n    constructor (string memory name, string memory symbol) public {\r\n        _name = name;\r\n        _symbol = symbol;\r\n        _decimals = 18;\r\n    }\r\n\r\n\r\n    function name() public view returns (string memory) {\r\n       return _name;\r\n    }\r\n\r\n    function symbol() public view returns (string memory) {\r\n        return _symbol;\r\n    }\r\n\r\n    function decimals() public view returns (uint8) {\r\n        return _decimals;\r\n    }\r\n\r\n    function totalSupply() public view returns (uint256) {\r\n        return _totalSupply;\r\n    }\r\n    \r\n    function balanceOf(address _account) public view returns (uint256) {\r\n        return _balances[_account];\r\n        \r\n    }\r\n\r\n    function mint(address _account, uint256 _amount) public onlyOwner {\r\n        _balances[_account] = SafeMath.add(_balances[_account], _amount); \r\n        _totalSupply = SafeMath.add(_totalSupply,_amount);\r\n        \r\n        \r\n    }\r\n\r\n    function transfer(address _recipient, uint256 _amount) public returns (bool) {\r\n        //check for required amount to transfer\r\n        require(_balances[msg.sender] >= _amount, \"Sorry, the sender does not have enough funds.\");\r\n        \r\n        // remove from sender\r\n        _balances[msg.sender] = SafeMath.sub(_balances[msg.sender], _amount);\r\n        \r\n        //add to _recipient\r\n        _balances[_recipient] = SafeMath.add(_balances[_recipient], _amount);\r\n        \r\n        \r\n\r\n    }\r\n}\r\n",
  "sourcePath": "I:\\Academy_Ivan\\truffleERC20\\contracts\\Token.sol",
  "compiler": {
    "name": "solc",
    "version": "0.5.12+commit.7709ece9.Emscripten.clang"
  },
  "schemaVersion": "3.2.0",
  "updatedAt": "2020-08-10T21:13:45.286Z",
  "devdoc": {
    "methods": {}
  },
  "userdoc": {
    "methods": {}
  }
}